{
  "contractName": "TodoList",
  "abi": [
    {
      "constant": true,
      "inputs": [
        {
          "name": "",
          "type": "uint256"
        }
      ],
      "name": "listTd",
      "outputs": [
        {
          "name": "task",
          "type": "string"
        }
      ],
      "payable": false,
      "stateMutability": "view",
      "type": "function",
      "signature": "0x4041f9cf"
    },
    {
      "constant": false,
      "inputs": [
        {
          "name": "_count",
          "type": "uint256"
        }
      ],
      "name": "setCount",
      "outputs": [],
      "payable": false,
      "stateMutability": "nonpayable",
      "type": "function",
      "signature": "0xd14e62b8"
    },
    {
      "constant": true,
      "inputs": [],
      "name": "getCount",
      "outputs": [
        {
          "name": "",
          "type": "uint256"
        }
      ],
      "payable": false,
      "stateMutability": "view",
      "type": "function",
      "signature": "0xa87d942c"
    },
    {
      "constant": false,
      "inputs": [
        {
          "name": "_id",
          "type": "uint256"
        },
        {
          "name": "_task",
          "type": "string"
        }
      ],
      "name": "setList",
      "outputs": [],
      "payable": false,
      "stateMutability": "nonpayable",
      "type": "function",
      "signature": "0xea3156b8"
    },
    {
      "constant": true,
      "inputs": [],
      "name": "getList",
      "outputs": [
        {
          "components": [
            {
              "name": "task",
              "type": "string"
            }
          ],
          "name": "",
          "type": "tuple"
        }
      ],
      "payable": false,
      "stateMutability": "view",
      "type": "function",
      "signature": "0x942b765a"
    }
  ],
  "bytecode": "0x60806040526000805534801561001457600080fd5b506105cc806100246000396000f3fe60806040526004361061006c5763ffffffff7c01000000000000000000000000000000000000000000000000000000006000350416634041f9cf8114610071578063942b765a146100a7578063a87d942c146100c9578063d14e62b8146100eb578063ea3156b81461010d575b600080fd5b34801561007d57600080fd5b5061009161008c3660046103e6565b61012d565b60405161009e91906104c3565b60405180910390f35b3480156100b357600080fd5b506100bc6101c9565b60405161009e91906104d4565b3480156100d557600080fd5b506100de610293565b60405161009e91906104e5565b3480156100f757600080fd5b5061010b6101063660046103e6565b610299565b005b34801561011957600080fd5b5061010b61012836600461040c565b61029e565b60016020818152600092835260409283902080548451600294821615610100026000190190911693909304601f81018390048302840183019094528383529283918301828280156101bf5780601f10610194576101008083540402835291602001916101bf565b820191906000526020600020905b8154815290600101906020018083116101a257829003601f168201915b5050505050905081565b6101d16102d5565b6000805260016020818152604080517fa6eef7e35abe7026729641147f7915573c7e97b47efa546f5f6e3230263bcb49805460029581161561010002600019011694909404601f8101849004840282018301835292810183815290939284928491908401828280156102845780601f1061025957610100808354040283529160200191610284565b820191906000526020600020905b81548152906001019060200180831161026757829003601f168201915b50505050508152505090505b90565b60005490565b600055565b60408051602081810183528382526000858152600182529290922081518051929391926102ce92849201906102e7565b5050505050565b60408051602081019091526060815290565b828054600181600116156101000203166002900490600052602060002090601f016020900481019282601f1061032857805160ff1916838001178555610355565b82800160010185558215610355579182015b8281111561035557825182559160200191906001019061033a565b50610361929150610365565b5090565b61029091905b80821115610361576000815560010161036b565b6000601f8201831361039057600080fd5b81356103a361039e82610520565b6104f9565b915080825260208301602083018583830111156103bf57600080fd5b6103ca83828461054c565b50505092915050565b60006103df8235610290565b9392505050565b6000602082840312156103f857600080fd5b600061040484846103d3565b949350505050565b6000806040838503121561041f57600080fd5b600061042b85856103d3565b925050602083013567ffffffffffffffff81111561044857600080fd5b6104548582860161037f565b9150509250929050565b600061046982610548565b80845261047d816020860160208601610558565b61048681610588565b9093016020019392505050565b80516020808452600091908401906104ab828261045e565b95945050505050565b6104bd81610290565b82525050565b602080825281016103df818461045e565b602080825281016103df8184610493565b602081016104f382846104b4565b92915050565b60405181810167ffffffffffffffff8111828210171561051857600080fd5b604052919050565b600067ffffffffffffffff82111561053757600080fd5b506020601f91909101601f19160190565b5190565b82818337506000910152565b60005b8381101561057357818101518382015260200161055b565b83811115610582576000848401525b50505050565b601f01601f19169056fea265627a7a723058209f35e491f1356d48c141a806301cf6acc48bb0b5f7e1f991f43c57b174ecd3be6c6578706572696d656e74616cf50037",
  "source": "pragma solidity ^0.5.0;\npragma experimental ABIEncoderV2;\n\ncontract TodoList{\n  uint count = 0;\n\n  function setCount(uint _count) public {\n    count = _count;\n  }\n\n  function getCount() public view returns(uint){\n    return count;\n  }\n\n  struct tdList{\n    string task;\n  }\n\n  mapping(uint => tdList) public listTd;\n\n  function setList(uint _id, string memory _task) public {\n    listTd[_id] =  tdList(_task);\n  }\n\n  function getList() public view returns(tdList memory){\n    return listTd[0];\n  }\n}",
  "sourcePath": "/Users/work/Documents/TodoList/contracts/TodoList.sol",
  "compiler": {
    "name": "solc",
    "version": "0.5.0+commit.1d4f565a.Emscripten.clang"
  },
  "schemaVersion": "3.0.1",
  "updatedAt": "2022-09-08T12:04:10.012Z",
  "devdoc": {
    "methods": {}
  },
  "userdoc": {
    "methods": {}
  }
}