{
  "contractName": "TodoList",
  "abi": [
    {
      "constant": false,
      "inputs": [
        {
          "name": "_count",
          "type": "uint256"
        }
      ],
      "name": "setCount",
      "outputs": [],
      "payable": false,
      "stateMutability": "nonpayable",
      "type": "function",
      "signature": "0xd14e62b8"
    },
    {
      "constant": true,
      "inputs": [],
      "name": "getCount",
      "outputs": [
        {
          "name": "",
          "type": "uint256"
        }
      ],
      "payable": false,
      "stateMutability": "view",
      "type": "function",
      "signature": "0xa87d942c"
    }
  ],
  "bytecode": "0x60806040526000805534801561001457600080fd5b5060d0806100236000396000f3fe60806040526004361060485763ffffffff7c0100000000000000000000000000000000000000000000000000000000600035041663a87d942c8114604d578063d14e62b8146071575b600080fd5b348015605857600080fd5b50605f6099565b60408051918252519081900360200190f35b348015607c57600080fd5b50609760048036036020811015609157600080fd5b5035609f565b005b60005490565b60005556fea165627a7a72305820ff1545dc925a9214cc9db98ff6bb4e990f843f23dc6831ad6a36bad7e59b368b0029",
  "source": "pragma solidity ^0.5.0;\n\ncontract TodoList{\n  uint count = 0;\n\n  function setCount(uint _count) public {\n    count = _count;\n  }\n\n  function getCount() public view returns(uint){\n    return count;\n  }\n}",
  "sourcePath": "/Users/work/Documents/TodoList/contracts/TodoList.sol",
  "compiler": {
    "name": "solc",
    "version": "0.5.0+commit.1d4f565a.Emscripten.clang"
  },
  "schemaVersion": "3.0.1",
  "updatedAt": "2022-09-08T10:58:05.472Z",
  "devdoc": {
    "methods": {}
  },
  "userdoc": {
    "methods": {}
  }
}